:100000000A128A1103280A128A11E7270A128A1192
:100010000A128A11D9270A128A11F30083120313D4
:100020007308F20072086F3A031D17281828292850
:100030000A128A11D9270A128A11F30083120313B4
:100040007308F20072086B3A031D27282828292814
:100050002A28082843300A128A11CE270A128A1148
:1000600079300A128A11CE270A128A1174300A12C4
:100070008A11CE270A128A1172300A128A11CE27EB
:100080000A128A116F300A128A11CE270A128A11B7
:100090006E300A128A11CE270A128A110A300A1209
:1000A0008A11CE270A128A110D300A128A11CE2720
:1000B0000A128A1150300A128A11CE270A128A11A6
:1000C00072300A128A11CE270A128A1165300A127A
:1000D0008A11CE270A128A1173300A128A11CE278A
:1000E0000A128A1173300A128A11CE270A128A1153
:1000F00020300A128A11CE270A128A1161300A12A0
:100100008A11CE270A128A116E300A128A11CE275E
:100110000A128A1179300A128A11CE270A128A111C
:1001200020300A128A11CE270A128A116E300A1262
:100130008A11CE270A128A1175300A128A11CE2727
:100140000A128A116D300A128A11CE270A128A11F8
:1001500062300A128A11CE270A128A1165300A12F9
:100160008A11CE270A128A1172300A128A11CE27FA
:100170000A128A1101308312031388000A128A11AD
:10018000D9270A128A11F300831203137308F200AD
:100190007208313A0319CD28CE2804297208323A60
:1001A0000319D328D42804297208333A0319D9280B
:1001B000DA2804297208343A0319DF28E0280429D0
:1001C0007208353A0319E528E62804297208363AF8
:1001D0000319EB28EC2804297208373A0319F1288F
:1001E000F22804297208383A0319F728F828042954
:1001F0007208393A0319FD28FE2804297208303A9A
:10020000031D0329042907297208D03E8800BE284F
:060210000A128A11002809
:100F9C00F400D02F831203130C1ED52FD62FD02F75
:100FAC00740899000800DA2F831203138C1EDF2FAC
:100FBC00E02FDA2F1A08F4007408F2007208E62FFA
:100FCC0008000A308316031399001815981683121B
:100FDC000313181698170310831603130030031805
:100FEC000130880003108312031300300318013002
:040FFC008800080061
:02400E00323F3F
:00000001FF
